{
  "_format": "hh-sol-artifact-1",
  "contractName": "NFTMarketplace",
  "sourceName": "contracts/NFTMarketplace.sol",
  "abi": [
    {
      "inputs": [],
      "stateMutability": "nonpayable",
      "type": "constructor"
    },
    {
      "anonymous": false,
      "inputs": [
        {
          "indexed": true,
          "internalType": "address",
          "name": "owner",
          "type": "address"
        },
        {
          "indexed": true,
          "internalType": "address",
          "name": "approved",
          "type": "address"
        },
        {
          "indexed": true,
          "internalType": "uint256",
          "name": "tokenId",
          "type": "uint256"
        }
      ],
      "name": "Approval",
      "type": "event"
    },
    {
      "anonymous": false,
      "inputs": [
        {
          "indexed": true,
          "internalType": "address",
          "name": "owner",
          "type": "address"
        },
        {
          "indexed": true,
          "internalType": "address",
          "name": "operator",
          "type": "address"
        },
        {
          "indexed": false,
          "internalType": "bool",
          "name": "approved",
          "type": "bool"
        }
      ],
      "name": "ApprovalForAll",
      "type": "event"
    },
    {
      "anonymous": false,
      "inputs": [
        {
          "indexed": true,
          "internalType": "uint256",
          "name": "tokenId",
          "type": "uint256"
        },
        {
          "indexed": false,
          "internalType": "address",
          "name": "seller",
          "type": "address"
        },
        {
          "indexed": false,
          "internalType": "address",
          "name": "owner",
          "type": "address"
        },
        {
          "indexed": false,
          "internalType": "uint256",
          "name": "price",
          "type": "uint256"
        },
        {
          "indexed": false,
          "internalType": "bool",
          "name": "sold",
          "type": "bool"
        }
      ],
      "name": "MarketItemCreated",
      "type": "event"
    },
    {
      "anonymous": false,
      "inputs": [
        {
          "indexed": true,
          "internalType": "address",
          "name": "from",
          "type": "address"
        },
        {
          "indexed": true,
          "internalType": "address",
          "name": "to",
          "type": "address"
        },
        {
          "indexed": true,
          "internalType": "uint256",
          "name": "tokenId",
          "type": "uint256"
        }
      ],
      "name": "Transfer",
      "type": "event"
    },
    {
      "inputs": [
        {
          "internalType": "address",
          "name": "to",
          "type": "address"
        },
        {
          "internalType": "uint256",
          "name": "tokenId",
          "type": "uint256"
        }
      ],
      "name": "approve",
      "outputs": [],
      "stateMutability": "nonpayable",
      "type": "function"
    },
    {
      "inputs": [
        {
          "internalType": "address",
          "name": "owner",
          "type": "address"
        }
      ],
      "name": "balanceOf",
      "outputs": [
        {
          "internalType": "uint256",
          "name": "",
          "type": "uint256"
        }
      ],
      "stateMutability": "view",
      "type": "function"
    },
    {
      "inputs": [
        {
          "internalType": "uint256",
          "name": "tokenId",
          "type": "uint256"
        }
      ],
      "name": "createMarketSale",
      "outputs": [],
      "stateMutability": "payable",
      "type": "function"
    },
    {
      "inputs": [
        {
          "internalType": "string",
          "name": "tokenURI",
          "type": "string"
        },
        {
          "internalType": "uint256",
          "name": "price",
          "type": "uint256"
        }
      ],
      "name": "createToken",
      "outputs": [
        {
          "internalType": "uint256",
          "name": "",
          "type": "uint256"
        }
      ],
      "stateMutability": "payable",
      "type": "function"
    },
    {
      "inputs": [],
      "name": "fetchMarketItems",
      "outputs": [
        {
          "components": [
            {
              "internalType": "uint256",
              "name": "tokenId",
              "type": "uint256"
            },
            {
              "internalType": "address payable",
              "name": "seller",
              "type": "address"
            },
            {
              "internalType": "address payable",
              "name": "owner",
              "type": "address"
            },
            {
              "internalType": "uint256",
              "name": "price",
              "type": "uint256"
            },
            {
              "internalType": "bool",
              "name": "sold",
              "type": "bool"
            }
          ],
          "internalType": "struct NFTMarketplace.MarketItem[]",
          "name": "",
          "type": "tuple[]"
        }
      ],
      "stateMutability": "view",
      "type": "function"
    },
    {
      "inputs": [],
      "name": "fetchMyNFTs",
      "outputs": [
        {
          "components": [
            {
              "internalType": "uint256",
              "name": "tokenId",
              "type": "uint256"
            },
            {
              "internalType": "address payable",
              "name": "seller",
              "type": "address"
            },
            {
              "internalType": "address payable",
              "name": "owner",
              "type": "address"
            },
            {
              "internalType": "uint256",
              "name": "price",
              "type": "uint256"
            },
            {
              "internalType": "bool",
              "name": "sold",
              "type": "bool"
            }
          ],
          "internalType": "struct NFTMarketplace.MarketItem[]",
          "name": "",
          "type": "tuple[]"
        }
      ],
      "stateMutability": "view",
      "type": "function"
    },
    {
      "inputs": [
        {
          "internalType": "uint256",
          "name": "tokenId",
          "type": "uint256"
        }
      ],
      "name": "getApproved",
      "outputs": [
        {
          "internalType": "address",
          "name": "",
          "type": "address"
        }
      ],
      "stateMutability": "view",
      "type": "function"
    },
    {
      "inputs": [
        {
          "internalType": "uint256",
          "name": "tokenId",
          "type": "uint256"
        }
      ],
      "name": "getListedTokenForId",
      "outputs": [
        {
          "components": [
            {
              "internalType": "uint256",
              "name": "tokenId",
              "type": "uint256"
            },
            {
              "internalType": "address payable",
              "name": "seller",
              "type": "address"
            },
            {
              "internalType": "address payable",
              "name": "owner",
              "type": "address"
            },
            {
              "internalType": "uint256",
              "name": "price",
              "type": "uint256"
            },
            {
              "internalType": "bool",
              "name": "sold",
              "type": "bool"
            }
          ],
          "internalType": "struct NFTMarketplace.MarketItem",
          "name": "",
          "type": "tuple"
        }
      ],
      "stateMutability": "view",
      "type": "function"
    },
    {
      "inputs": [],
      "name": "getListingPrice",
      "outputs": [
        {
          "internalType": "uint256",
          "name": "",
          "type": "uint256"
        }
      ],
      "stateMutability": "view",
      "type": "function"
    },
    {
      "inputs": [
        {
          "internalType": "address",
          "name": "owner",
          "type": "address"
        },
        {
          "internalType": "address",
          "name": "operator",
          "type": "address"
        }
      ],
      "name": "isApprovedForAll",
      "outputs": [
        {
          "internalType": "bool",
          "name": "",
          "type": "bool"
        }
      ],
      "stateMutability": "view",
      "type": "function"
    },
    {
      "inputs": [],
      "name": "name",
      "outputs": [
        {
          "internalType": "string",
          "name": "",
          "type": "string"
        }
      ],
      "stateMutability": "view",
      "type": "function"
    },
    {
      "inputs": [
        {
          "internalType": "uint256",
          "name": "tokenId",
          "type": "uint256"
        }
      ],
      "name": "ownerOf",
      "outputs": [
        {
          "internalType": "address",
          "name": "",
          "type": "address"
        }
      ],
      "stateMutability": "view",
      "type": "function"
    },
    {
      "inputs": [
        {
          "internalType": "uint256",
          "name": "tokenId",
          "type": "uint256"
        },
        {
          "internalType": "uint256",
          "name": "price",
          "type": "uint256"
        }
      ],
      "name": "resellToken",
      "outputs": [],
      "stateMutability": "payable",
      "type": "function"
    },
    {
      "inputs": [
        {
          "internalType": "address",
          "name": "from",
          "type": "address"
        },
        {
          "internalType": "address",
          "name": "to",
          "type": "address"
        },
        {
          "internalType": "uint256",
          "name": "tokenId",
          "type": "uint256"
        }
      ],
      "name": "safeTransferFrom",
      "outputs": [],
      "stateMutability": "nonpayable",
      "type": "function"
    },
    {
      "inputs": [
        {
          "internalType": "address",
          "name": "from",
          "type": "address"
        },
        {
          "internalType": "address",
          "name": "to",
          "type": "address"
        },
        {
          "internalType": "uint256",
          "name": "tokenId",
          "type": "uint256"
        },
        {
          "internalType": "bytes",
          "name": "data",
          "type": "bytes"
        }
      ],
      "name": "safeTransferFrom",
      "outputs": [],
      "stateMutability": "nonpayable",
      "type": "function"
    },
    {
      "inputs": [
        {
          "internalType": "address",
          "name": "operator",
          "type": "address"
        },
        {
          "internalType": "bool",
          "name": "approved",
          "type": "bool"
        }
      ],
      "name": "setApprovalForAll",
      "outputs": [],
      "stateMutability": "nonpayable",
      "type": "function"
    },
    {
      "inputs": [
        {
          "internalType": "bytes4",
          "name": "interfaceId",
          "type": "bytes4"
        }
      ],
      "name": "supportsInterface",
      "outputs": [
        {
          "internalType": "bool",
          "name": "",
          "type": "bool"
        }
      ],
      "stateMutability": "view",
      "type": "function"
    },
    {
      "inputs": [],
      "name": "symbol",
      "outputs": [
        {
          "internalType": "string",
          "name": "",
          "type": "string"
        }
      ],
      "stateMutability": "view",
      "type": "function"
    },
    {
      "inputs": [
        {
          "internalType": "uint256",
          "name": "tokenId",
          "type": "uint256"
        }
      ],
      "name": "tokenURI",
      "outputs": [
        {
          "internalType": "string",
          "name": "",
          "type": "string"
        }
      ],
      "stateMutability": "view",
      "type": "function"
    },
    {
      "inputs": [
        {
          "internalType": "address",
          "name": "from",
          "type": "address"
        },
        {
          "internalType": "address",
          "name": "to",
          "type": "address"
        },
        {
          "internalType": "uint256",
          "name": "tokenId",
          "type": "uint256"
        }
      ],
      "name": "transferFrom",
      "outputs": [],
      "stateMutability": "nonpayable",
      "type": "function"
    },
    {
      "inputs": [
        {
          "internalType": "uint256",
          "name": "_listingPrice",
          "type": "uint256"
        }
      ],
      "name": "updateListingPrice",
      "outputs": [],
      "stateMutability": "payable",
      "type": "function"
    }
  ],
  "bytecode": "0x60806040526509184e72a000600a553480156200001b57600080fd5b50604080518082018252600e81526d4e46544d61726b6574706c61636560901b602080830191825283518085019094526005845264135653919560da1b9084015281519192916200006f916000916200008f565b508051620000859060019060208401906200008f565b5062000172915050565b8280546200009d9062000135565b90600052602060002090601f016020900481019282620000c157600085556200010c565b82601f10620000dc57805160ff19168380011785556200010c565b828001600101855582156200010c579182015b828111156200010c578251825591602001919060010190620000ef565b506200011a9291506200011e565b5090565b5b808211156200011a57600081556001016200011f565b600181811c908216806200014a57607f821691505b602082108114156200016c57634e487b7160e01b600052602260045260246000fd5b50919050565b6122f780620001826000396000f3fe60806040526004361061012a5760003560e01c806370a08231116100ab578063ae677aa31161006f578063ae677aa3146103b3578063b88d4fde146103c6578063be9af536146103e6578063c87b56dd146103f9578063e219fc7514610419578063e985e9c51461042c57600080fd5b806370a082311461029657806372b3b620146102b65780638e264590146102c957806395d89b411461037e578063a22cb4651461039357600080fd5b806312e85585116100f257806312e8558514610202578063202e37401461022157806323b872dd1461023657806342842e0e146102565780636352211e1461027657600080fd5b806301ffc9a71461012f57806306fdde0314610164578063081812fc14610186578063095ea7b3146101be5780630f08efe0146101e0575b600080fd5b34801561013b57600080fd5b5061014f61014a366004611e98565b610475565b60405190151581526020015b60405180910390f35b34801561017057600080fd5b506101796104c7565b60405161015b9190612085565b34801561019257600080fd5b506101a66101a1366004611f26565b610559565b6040516001600160a01b03909116815260200161015b565b3480156101ca57600080fd5b506101de6101d9366004611e6f565b610580565b005b3480156101ec57600080fd5b506101f561069b565b60405161015b9190612037565b34801561020e57600080fd5b50600a545b60405190815260200161015b565b34801561022d57600080fd5b506101f561084f565b34801561024257600080fd5b506101de610251366004611d81565b610aab565b34801561026257600080fd5b506101de610271366004611d81565b610adc565b34801561028257600080fd5b506101a6610291366004611f26565b610af7565b3480156102a257600080fd5b506102136102b1366004611d35565b610b57565b6102136102c4366004611ed0565b610bdd565b3480156102d557600080fd5b506103716102e4366004611f26565b6040805160a081018252600080825260208201819052918101829052606081018290526080810191909152506000908152600b6020908152604091829020825160a0810184528154815260018201546001600160a01b03908116938201939093526002820154909216928201929092526003820154606082015260049091015460ff161515608082015290565b60405161015b91906121c0565b34801561038a57600080fd5b50610179610c1f565b34801561039f57600080fd5b506101de6103ae366004611e35565b610c2e565b6101de6103c1366004611f26565b610c3d565b3480156103d257600080fd5b506101de6103e1366004611dbc565b610d35565b6101de6103f4366004611f26565b610d6d565b34801561040557600080fd5b50610179610414366004611f26565b610ed5565b6101de610427366004611f3e565b610fe6565b34801561043857600080fd5b5061014f610447366004611d4f565b6001600160a01b03918216600090815260056020908152604080832093909416825291909152205460ff1690565b60006001600160e01b031982166380ac58cd60e01b14806104a657506001600160e01b03198216635b5e139f60e01b145b806104c157506301ffc9a760e01b6001600160e01b03198316145b92915050565b6060600080546104d690612229565b80601f016020809104026020016040519081016040528092919081815260200182805461050290612229565b801561054f5780601f106105245761010080835404028352916020019161054f565b820191906000526020600020905b81548152906001019060200180831161053257829003601f168201915b5050505050905090565b6000610564826110de565b506000908152600460205260409020546001600160a01b031690565b600061058b82610af7565b9050806001600160a01b0316836001600160a01b031614156105fe5760405162461bcd60e51b815260206004820152602160248201527f4552433732313a20617070726f76616c20746f2063757272656e74206f776e656044820152603960f91b60648201526084015b60405180910390fd5b336001600160a01b038216148061061a575061061a8133610447565b61068c5760405162461bcd60e51b815260206004820152603d60248201527f4552433732313a20617070726f76652063616c6c6572206973206e6f7420746f60448201527f6b656e206f776e6572206f7220617070726f76656420666f7220616c6c00000060648201526084016105f5565b6106968383611140565b505050565b606060006106a860075490565b905060006106b560085490565b6007546106c291906121e6565b90506000808267ffffffffffffffff8111156106ee57634e487b7160e01b600052604160045260246000fd5b60405190808252806020026020018201604052801561074757816020015b6040805160a08101825260008082526020808301829052928201819052606082018190526080820152825260001990920191018161070c5790505b50905060005b848110156108465730600b60006107658460016121ce565b81526020810191909152604001600020600201546001600160a01b031614156108345760006107958260016121ce565b6000818152600b6020908152604091829020825160a0810184528154815260018201546001600160a01b039081169382019390935260028201549092169282019290925260038201546060820152600482015460ff16151560808201528551929350909185908790811061081957634e487b7160e01b600052603260045260246000fd5b602090810291909101015261082f6001866121ce565b945050505b8061083e81612264565b91505061074d565b50949350505050565b6060600061085c60075490565b905060008060005b838110156108f45733600b600061087c8460016121ce565b81526020810191909152604001600020600201546001600160a01b031614806108cf575033600b60006108b08460016121ce565b81526020810191909152604001600020600101546001600160a01b0316145b156108e2576108df6001846121ce565b92505b806108ec81612264565b915050610864565b5060008267ffffffffffffffff81111561091e57634e487b7160e01b600052604160045260246000fd5b60405190808252806020026020018201604052801561097757816020015b6040805160a08101825260008082526020808301829052928201819052606082018190526080820152825260001990920191018161093c5790505b50905060005b848110156108465733600b60006109958460016121ce565b81526020810191909152604001600020600201546001600160a01b031614806109e8575033600b60006109c98460016121ce565b81526020810191909152604001600020600101546001600160a01b0316145b15610a995760006109fa8260016121ce565b6000818152600b6020908152604091829020825160a0810184528154815260018201546001600160a01b039081169382019390935260028201549092169282019290925260038201546060820152600482015460ff161515608082015285519293509091859087908110610a7e57634e487b7160e01b600052603260045260246000fd5b6020908102919091010152610a946001866121ce565b945050505b80610aa381612264565b91505061097d565b610ab533826111ae565b610ad15760405162461bcd60e51b81526004016105f590612098565b61069683838361122c565b61069683838360405180602001604052806000815250610d35565b6000818152600260205260408120546001600160a01b0316806104c15760405162461bcd60e51b8152602060048201526018602482015277115490cdcc8c4e881a5b9d985b1a59081d1bdad95b88125160421b60448201526064016105f5565b60006001600160a01b038216610bc15760405162461bcd60e51b815260206004820152602960248201527f4552433732313a2061646472657373207a65726f206973206e6f7420612076616044820152683634b21037bbb732b960b91b60648201526084016105f5565b506001600160a01b031660009081526003602052604090205490565b6000610bed600780546001019055565b6000610bf860075490565b9050610c04338261139d565b610c0e8185611536565b610c1881846115d0565b9392505050565b6060600180546104d690612229565b610c39338383611726565b5050565b6009546001600160a01b03163314610cbd5760405162461bcd60e51b815260206004820152603a60248201527f6f6e6c79206f776e6572206f6620746865206d61726b6574706c61636520636160448201527f6e206368616e676520746865206c697374696e6720707269636500000000000060648201526084016105f5565b6009546001600160a01b03163314610d305760405162461bcd60e51b815260206004820152603060248201527f4f6e6c79206d61726b6574706c616365206f776e65722063616e20757064617460448201526f32903634b9ba34b73390383934b1b29760811b60648201526084016105f5565b600a55565b610d3f33836111ae565b610d5b5760405162461bcd60e51b81526004016105f590612098565b610d67848484846117f5565b50505050565b6000818152600b6020526040902060030154348114610df6576040805162461bcd60e51b81526020600482015260248101919091527f506c65617365207375626d6974207468652061736b696e67207072696365206960448201527f6e206f7264657220746f20636f6d706c6574652074686520707572636861736560648201526084016105f5565b6000828152600b602052604090206002810180546001600160a01b0319908116331790915560048201805460ff1916600190811790915590910180549091169055610e45600880546001019055565b610e5030338461122c565b600954600a546040516001600160a01b039092169181156108fc0291906000818181858888f19350505050158015610e8c573d6000803e3d6000fd5b506000828152600b60205260408082206001015490516001600160a01b03909116913480156108fc02929091818181858888f19350505050158015610696573d6000803e3d6000fd5b6060610ee0826110de565b60008281526006602052604081208054610ef990612229565b80601f0160208091040260200160405190810160405280929190818152602001828054610f2590612229565b8015610f725780601f10610f4757610100808354040283529160200191610f72565b820191906000526020600020905b815481529060010190602001808311610f5557829003601f168201915b505050505090506000610f9060408051602081019091526000815290565b9050805160001415610fa3575092915050565b815115610fd5578082604051602001610fbd929190611fcb565b60405160208183030381529060405292505050919050565b610fde84611828565b949350505050565b6000828152600b60205260409020600201546001600160a01b031633146110625760405162461bcd60e51b815260206004820152602a60248201527f4f6e6c79206974656d206f776e65722063616e20706572666f726d20746869736044820152691037b832b930ba34b7b760b11b60648201526084016105f5565b600a5434146110835760405162461bcd60e51b81526004016105f59061217c565b6000828152600b6020526040902060048101805460ff19169055600381018290556001810180546001600160a01b0319908116331790915560029091018054909116301790556110d3600861189b565b610c3933308461122c565b6000818152600260205260409020546001600160a01b031661113d5760405162461bcd60e51b8152602060048201526018602482015277115490cdcc8c4e881a5b9d985b1a59081d1bdad95b88125160421b60448201526064016105f5565b50565b600081815260046020526040902080546001600160a01b0319166001600160a01b038416908117909155819061117582610af7565b6001600160a01b03167f8c5be1e5ebec7d5bd14f71427d1e84f3dd0314c0f7b2291e5b200ac8c7c3b92560405160405180910390a45050565b6000806111ba83610af7565b9050806001600160a01b0316846001600160a01b0316148061120157506001600160a01b0380821660009081526005602090815260408083209388168352929052205460ff165b80610fde5750836001600160a01b031661121a84610559565b6001600160a01b031614949350505050565b826001600160a01b031661123f82610af7565b6001600160a01b0316146112655760405162461bcd60e51b81526004016105f590612137565b6001600160a01b0382166112c75760405162461bcd60e51b8152602060048201526024808201527f4552433732313a207472616e7366657220746f20746865207a65726f206164646044820152637265737360e01b60648201526084016105f5565b6112d483838360016118f2565b826001600160a01b03166112e782610af7565b6001600160a01b03161461130d5760405162461bcd60e51b81526004016105f590612137565b600081815260046020908152604080832080546001600160a01b03199081169091556001600160a01b0387811680865260038552838620805460001901905590871680865283862080546001019055868652600290945282852080549092168417909155905184937fddf252ad1be2c89b69c2b068fc378daa952ba7f163c4a11628f55a4df523b3ef91a4505050565b6001600160a01b0382166113f35760405162461bcd60e51b815260206004820181905260248201527f4552433732313a206d696e7420746f20746865207a65726f206164647265737360448201526064016105f5565b6000818152600260205260409020546001600160a01b0316156114585760405162461bcd60e51b815260206004820152601c60248201527f4552433732313a20746f6b656e20616c7265616479206d696e7465640000000060448201526064016105f5565b6114666000838360016118f2565b6000818152600260205260409020546001600160a01b0316156114cb5760405162461bcd60e51b815260206004820152601c60248201527f4552433732313a20746f6b656e20616c7265616479206d696e7465640000000060448201526064016105f5565b6001600160a01b038216600081815260036020908152604080832080546001019055848352600290915280822080546001600160a01b0319168417905551839291907fddf252ad1be2c89b69c2b068fc378daa952ba7f163c4a11628f55a4df523b3ef908290a45050565b6000828152600260205260409020546001600160a01b03166115b15760405162461bcd60e51b815260206004820152602e60248201527f45524337323155524953746f726167653a2055524920736574206f66206e6f6e60448201526d32bc34b9ba32b73a103a37b5b2b760911b60648201526084016105f5565b6000828152600660209081526040909120825161069692840190611c0a565b600081116116205760405162461bcd60e51b815260206004820152601d60248201527f5072696365206d757374206265206174206c65617374203120756e697400000060448201526064016105f5565b600a5434146116415760405162461bcd60e51b81526004016105f59061217c565b6040805160a08101825283815233602080830182815230848601818152606086018881526000608088018181528b8252600b909652979097209551865591516001860180546001600160a01b03199081166001600160a01b0393841617909155925160028701805490941691161790915593516003840155516004909201805460ff1916921515929092179091556116d9918461122c565b604080513381523060208201529081018290526000606082015282907fb640004f1d14576d0c209e240cad0410e0d8c0c33a09375861fbadae2588a98d9060800160405180910390a25050565b816001600160a01b0316836001600160a01b031614156117885760405162461bcd60e51b815260206004820152601960248201527f4552433732313a20617070726f766520746f2063616c6c65720000000000000060448201526064016105f5565b6001600160a01b03838116600081815260056020908152604080832094871680845294825291829020805460ff191686151590811790915591519182527f17307eab39ab6107e8899845ad3d59bd9653f200f220920489ca2b5937696c31910160405180910390a3505050565b61180084848461122c565b61180c8484848461197a565b610d675760405162461bcd60e51b81526004016105f5906120e5565b6060611833826110de565b600061184a60408051602081019091526000815290565b9050600081511161186a5760405180602001604052806000815250610c18565b8061187484611a87565b604051602001611885929190611fcb565b6040516020818303038152906040529392505050565b8054806118ea5760405162461bcd60e51b815260206004820152601b60248201527f436f756e7465723a2064656372656d656e74206f766572666c6f77000000000060448201526064016105f5565b600019019055565b6001811115610d67576001600160a01b03841615611938576001600160a01b038416600090815260036020526040812080548392906119329084906121e6565b90915550505b6001600160a01b03831615610d67576001600160a01b0383166000908152600360205260408120805483929061196f9084906121ce565b909155505050505050565b60006001600160a01b0384163b15611a7c57604051630a85bd0160e11b81526001600160a01b0385169063150b7a02906119be903390899088908890600401611ffa565b602060405180830381600087803b1580156119d857600080fd5b505af1925050508015611a08575060408051601f3d908101601f19168201909252611a0591810190611eb4565b60015b611a62573d808015611a36576040519150601f19603f3d011682016040523d82523d6000602084013e611a3b565b606091505b508051611a5a5760405162461bcd60e51b81526004016105f5906120e5565b805181602001fd5b6001600160e01b031916630a85bd0160e11b149050610fde565b506001949350505050565b60606000611a9483611b32565b600101905060008167ffffffffffffffff811115611ac257634e487b7160e01b600052604160045260246000fd5b6040519080825280601f01601f191660200182016040528015611aec576020820181803683370190505b5090508181016020015b600019016f181899199a1a9b1b9c1cb0b131b232b360811b600a86061a8153600a8504945084611b2557611b2a565b611af6565b509392505050565b60008072184f03e93ff9f4daa797ed6e38ed64bf6a1f0160401b8310611b715772184f03e93ff9f4daa797ed6e38ed64bf6a1f0160401b830492506040015b6d04ee2d6d415b85acef81000000008310611b9d576d04ee2d6d415b85acef8100000000830492506020015b662386f26fc100008310611bbb57662386f26fc10000830492506010015b6305f5e1008310611bd3576305f5e100830492506008015b6127108310611be757612710830492506004015b60648310611bf9576064830492506002015b600a83106104c15760010192915050565b828054611c1690612229565b90600052602060002090601f016020900481019282611c385760008555611c7e565b82601f10611c5157805160ff1916838001178555611c7e565b82800160010185558215611c7e579182015b82811115611c7e578251825591602001919060010190611c63565b50611c8a929150611c8e565b5090565b5b80821115611c8a5760008155600101611c8f565b600067ffffffffffffffff80841115611cbe57611cbe612295565b604051601f8501601f19908116603f01168101908282118183101715611ce657611ce6612295565b81604052809350858152868686011115611cff57600080fd5b858560208301376000602087830101525050509392505050565b80356001600160a01b0381168114611d3057600080fd5b919050565b600060208284031215611d46578081fd5b610c1882611d19565b60008060408385031215611d61578081fd5b611d6a83611d19565b9150611d7860208401611d19565b90509250929050565b600080600060608486031215611d95578081fd5b611d9e84611d19565b9250611dac60208501611d19565b9150604084013590509250925092565b60008060008060808587031215611dd1578081fd5b611dda85611d19565b9350611de860208601611d19565b925060408501359150606085013567ffffffffffffffff811115611e0a578182fd5b8501601f81018713611e1a578182fd5b611e2987823560208401611ca3565b91505092959194509250565b60008060408385031215611e47578182fd5b611e5083611d19565b915060208301358015158114611e64578182fd5b809150509250929050565b60008060408385031215611e81578182fd5b611e8a83611d19565b946020939093013593505050565b600060208284031215611ea9578081fd5b8135610c18816122ab565b600060208284031215611ec5578081fd5b8151610c18816122ab565b60008060408385031215611ee2578182fd5b823567ffffffffffffffff811115611ef8578283fd5b8301601f81018513611f08578283fd5b611f1785823560208401611ca3565b95602094909401359450505050565b600060208284031215611f37578081fd5b5035919050565b60008060408385031215611f50578182fd5b50508035926020909101359150565b60008151808452611f778160208601602086016121fd565b601f01601f19169290920160200192915050565b805182526020808201516001600160a01b039081169184019190915260408083015190911690830152606080820151908301526080908101511515910152565b60008351611fdd8184602088016121fd565b835190830190611ff18183602088016121fd565b01949350505050565b6001600160a01b038581168252841660208201526040810183905260806060820181905260009061202d90830184611f5f565b9695505050505050565b6020808252825182820181905260009190848201906040850190845b8181101561207957612066838551611f8b565b9284019260a09290920191600101612053565b50909695505050505050565b602081526000610c186020830184611f5f565b6020808252602d908201527f4552433732313a2063616c6c6572206973206e6f7420746f6b656e206f776e6560408201526c1c881bdc88185c1c1c9bdd9959609a1b606082015260800190565b60208082526032908201527f4552433732313a207472616e7366657220746f206e6f6e20455243373231526560408201527131b2b4bb32b91034b6b83632b6b2b73a32b960711b606082015260800190565b60208082526025908201527f4552433732313a207472616e736665722066726f6d20696e636f72726563742060408201526437bbb732b960d91b606082015260800190565b60208082526024908201527f5072696365206d75737420626520657175616c20746f206c697374696e6720706040820152637269636560e01b606082015260800190565b60a081016104c18284611f8b565b600082198211156121e1576121e161227f565b500190565b6000828210156121f8576121f861227f565b500390565b60005b83811015612218578181015183820152602001612200565b83811115610d675750506000910152565b600181811c9082168061223d57607f821691505b6020821081141561225e57634e487b7160e01b600052602260045260246000fd5b50919050565b60006000198214156122785761227861227f565b5060010190565b634e487b7160e01b600052601160045260246000fd5b634e487b7160e01b600052604160045260246000fd5b6001600160e01b03198116811461113d57600080fdfea26469706673582212200125ae2aa65859458b780327ef85f8ef56216fe9f89008da3abe39502ac3e91c64736f6c63430008040033",
  "linkReferences": {},
  "deployedLinkReferences": {}
}