{
  "_format": "hh-sol-artifact-1",
  "contractName": "NFTMarketplace",
  "sourceName": "contracts/NFTMarketplace.sol",
  "abi": [
    {
      "inputs": [],
      "stateMutability": "nonpayable",
      "type": "constructor"
    },
    {
      "anonymous": false,
      "inputs": [
        {
          "indexed": true,
          "internalType": "address",
          "name": "owner",
          "type": "address"
        },
        {
          "indexed": true,
          "internalType": "address",
          "name": "approved",
          "type": "address"
        },
        {
          "indexed": true,
          "internalType": "uint256",
          "name": "tokenId",
          "type": "uint256"
        }
      ],
      "name": "Approval",
      "type": "event"
    },
    {
      "anonymous": false,
      "inputs": [
        {
          "indexed": true,
          "internalType": "address",
          "name": "owner",
          "type": "address"
        },
        {
          "indexed": true,
          "internalType": "address",
          "name": "operator",
          "type": "address"
        },
        {
          "indexed": false,
          "internalType": "bool",
          "name": "approved",
          "type": "bool"
        }
      ],
      "name": "ApprovalForAll",
      "type": "event"
    },
    {
      "anonymous": false,
      "inputs": [
        {
          "indexed": true,
          "internalType": "uint256",
          "name": "tokenId",
          "type": "uint256"
        },
        {
          "indexed": false,
          "internalType": "address",
          "name": "seller",
          "type": "address"
        },
        {
          "indexed": false,
          "internalType": "address",
          "name": "owner",
          "type": "address"
        },
        {
          "indexed": false,
          "internalType": "uint256",
          "name": "price",
          "type": "uint256"
        },
        {
          "indexed": false,
          "internalType": "bool",
          "name": "sold",
          "type": "bool"
        }
      ],
      "name": "MarketItemCreated",
      "type": "event"
    },
    {
      "anonymous": false,
      "inputs": [
        {
          "indexed": true,
          "internalType": "address",
          "name": "from",
          "type": "address"
        },
        {
          "indexed": true,
          "internalType": "address",
          "name": "to",
          "type": "address"
        },
        {
          "indexed": true,
          "internalType": "uint256",
          "name": "tokenId",
          "type": "uint256"
        }
      ],
      "name": "Transfer",
      "type": "event"
    },
    {
      "inputs": [
        {
          "internalType": "address",
          "name": "to",
          "type": "address"
        },
        {
          "internalType": "uint256",
          "name": "tokenId",
          "type": "uint256"
        }
      ],
      "name": "approve",
      "outputs": [],
      "stateMutability": "nonpayable",
      "type": "function"
    },
    {
      "inputs": [
        {
          "internalType": "address",
          "name": "owner",
          "type": "address"
        }
      ],
      "name": "balanceOf",
      "outputs": [
        {
          "internalType": "uint256",
          "name": "",
          "type": "uint256"
        }
      ],
      "stateMutability": "view",
      "type": "function"
    },
    {
      "inputs": [
        {
          "internalType": "uint256",
          "name": "tokenId",
          "type": "uint256"
        }
      ],
      "name": "createMarketSale",
      "outputs": [],
      "stateMutability": "payable",
      "type": "function"
    },
    {
      "inputs": [
        {
          "internalType": "string",
          "name": "tokenURI",
          "type": "string"
        },
        {
          "internalType": "uint256",
          "name": "price",
          "type": "uint256"
        }
      ],
      "name": "createToken",
      "outputs": [
        {
          "internalType": "uint256",
          "name": "",
          "type": "uint256"
        }
      ],
      "stateMutability": "payable",
      "type": "function"
    },
    {
      "inputs": [],
      "name": "fetchMarketItems",
      "outputs": [
        {
          "components": [
            {
              "internalType": "uint256",
              "name": "tokenId",
              "type": "uint256"
            },
            {
              "internalType": "address payable",
              "name": "seller",
              "type": "address"
            },
            {
              "internalType": "address payable",
              "name": "owner",
              "type": "address"
            },
            {
              "internalType": "uint256",
              "name": "price",
              "type": "uint256"
            },
            {
              "internalType": "bool",
              "name": "sold",
              "type": "bool"
            }
          ],
          "internalType": "struct NFTMarketplace.MarketItem[]",
          "name": "",
          "type": "tuple[]"
        }
      ],
      "stateMutability": "view",
      "type": "function"
    },
    {
      "inputs": [],
      "name": "fetchMyNFTs",
      "outputs": [
        {
          "components": [
            {
              "internalType": "uint256",
              "name": "tokenId",
              "type": "uint256"
            },
            {
              "internalType": "address payable",
              "name": "seller",
              "type": "address"
            },
            {
              "internalType": "address payable",
              "name": "owner",
              "type": "address"
            },
            {
              "internalType": "uint256",
              "name": "price",
              "type": "uint256"
            },
            {
              "internalType": "bool",
              "name": "sold",
              "type": "bool"
            }
          ],
          "internalType": "struct NFTMarketplace.MarketItem[]",
          "name": "",
          "type": "tuple[]"
        }
      ],
      "stateMutability": "view",
      "type": "function"
    },
    {
      "inputs": [
        {
          "internalType": "uint256",
          "name": "tokenId",
          "type": "uint256"
        }
      ],
      "name": "getApproved",
      "outputs": [
        {
          "internalType": "address",
          "name": "",
          "type": "address"
        }
      ],
      "stateMutability": "view",
      "type": "function"
    },
    {
      "inputs": [],
      "name": "getListingPrice",
      "outputs": [
        {
          "internalType": "uint256",
          "name": "",
          "type": "uint256"
        }
      ],
      "stateMutability": "view",
      "type": "function"
    },
    {
      "inputs": [
        {
          "internalType": "address",
          "name": "owner",
          "type": "address"
        },
        {
          "internalType": "address",
          "name": "operator",
          "type": "address"
        }
      ],
      "name": "isApprovedForAll",
      "outputs": [
        {
          "internalType": "bool",
          "name": "",
          "type": "bool"
        }
      ],
      "stateMutability": "view",
      "type": "function"
    },
    {
      "inputs": [],
      "name": "name",
      "outputs": [
        {
          "internalType": "string",
          "name": "",
          "type": "string"
        }
      ],
      "stateMutability": "view",
      "type": "function"
    },
    {
      "inputs": [
        {
          "internalType": "uint256",
          "name": "tokenId",
          "type": "uint256"
        }
      ],
      "name": "ownerOf",
      "outputs": [
        {
          "internalType": "address",
          "name": "",
          "type": "address"
        }
      ],
      "stateMutability": "view",
      "type": "function"
    },
    {
      "inputs": [
        {
          "internalType": "uint256",
          "name": "tokenId",
          "type": "uint256"
        },
        {
          "internalType": "uint256",
          "name": "price",
          "type": "uint256"
        }
      ],
      "name": "resellToken",
      "outputs": [],
      "stateMutability": "payable",
      "type": "function"
    },
    {
      "inputs": [
        {
          "internalType": "address",
          "name": "from",
          "type": "address"
        },
        {
          "internalType": "address",
          "name": "to",
          "type": "address"
        },
        {
          "internalType": "uint256",
          "name": "tokenId",
          "type": "uint256"
        }
      ],
      "name": "safeTransferFrom",
      "outputs": [],
      "stateMutability": "nonpayable",
      "type": "function"
    },
    {
      "inputs": [
        {
          "internalType": "address",
          "name": "from",
          "type": "address"
        },
        {
          "internalType": "address",
          "name": "to",
          "type": "address"
        },
        {
          "internalType": "uint256",
          "name": "tokenId",
          "type": "uint256"
        },
        {
          "internalType": "bytes",
          "name": "data",
          "type": "bytes"
        }
      ],
      "name": "safeTransferFrom",
      "outputs": [],
      "stateMutability": "nonpayable",
      "type": "function"
    },
    {
      "inputs": [
        {
          "internalType": "address",
          "name": "operator",
          "type": "address"
        },
        {
          "internalType": "bool",
          "name": "approved",
          "type": "bool"
        }
      ],
      "name": "setApprovalForAll",
      "outputs": [],
      "stateMutability": "nonpayable",
      "type": "function"
    },
    {
      "inputs": [
        {
          "internalType": "bytes4",
          "name": "interfaceId",
          "type": "bytes4"
        }
      ],
      "name": "supportsInterface",
      "outputs": [
        {
          "internalType": "bool",
          "name": "",
          "type": "bool"
        }
      ],
      "stateMutability": "view",
      "type": "function"
    },
    {
      "inputs": [],
      "name": "symbol",
      "outputs": [
        {
          "internalType": "string",
          "name": "",
          "type": "string"
        }
      ],
      "stateMutability": "view",
      "type": "function"
    },
    {
      "inputs": [
        {
          "internalType": "uint256",
          "name": "tokenId",
          "type": "uint256"
        }
      ],
      "name": "tokenURI",
      "outputs": [
        {
          "internalType": "string",
          "name": "",
          "type": "string"
        }
      ],
      "stateMutability": "view",
      "type": "function"
    },
    {
      "inputs": [
        {
          "internalType": "address",
          "name": "from",
          "type": "address"
        },
        {
          "internalType": "address",
          "name": "to",
          "type": "address"
        },
        {
          "internalType": "uint256",
          "name": "tokenId",
          "type": "uint256"
        }
      ],
      "name": "transferFrom",
      "outputs": [],
      "stateMutability": "nonpayable",
      "type": "function"
    },
    {
      "inputs": [
        {
          "internalType": "uint256",
          "name": "_listingPrice",
          "type": "uint256"
        }
      ],
      "name": "updateListingPrice",
      "outputs": [],
      "stateMutability": "payable",
      "type": "function"
    }
  ],
  "bytecode": "0x60806040526509184e72a000600a553480156200001b57600080fd5b50604080518082018252600e81526d4e46544d61726b6574706c61636560901b602080830191825283518085019094526005845264135653919560da1b9084015281519192916200006f916000916200008f565b508051620000859060019060208401906200008f565b5062000172915050565b8280546200009d9062000135565b90600052602060002090601f016020900481019282620000c157600085556200010c565b82601f10620000dc57805160ff19168380011785556200010c565b828001600101855582156200010c579182015b828111156200010c578251825591602001919060010190620000ef565b506200011a9291506200011e565b5090565b5b808211156200011a57600081556001016200011f565b600181811c908216806200014a57607f821691505b602082108114156200016c57634e487b7160e01b600052602260045260246000fd5b50919050565b61226480620001826000396000f3fe60806040526004361061011f5760003560e01c806370a08231116100a0578063b88d4fde11610064578063b88d4fde14610306578063be9af53614610326578063c87b56dd14610339578063e219fc7514610359578063e985e9c51461036c57600080fd5b806370a082311461028b57806372b3b620146102ab57806395d89b41146102be578063a22cb465146102d3578063ae677aa3146102f357600080fd5b806312e85585116100e757806312e85585146101f7578063202e37401461021657806323b872dd1461022b57806342842e0e1461024b5780636352211e1461026b57600080fd5b806301ffc9a71461012457806306fdde0314610159578063081812fc1461017b578063095ea7b3146101b35780630f08efe0146101d5575b600080fd5b34801561013057600080fd5b5061014461013f366004611e25565b6103b5565b60405190151581526020015b60405180910390f35b34801561016557600080fd5b5061016e610407565b6040516101509190612000565b34801561018757600080fd5b5061019b610196366004611eb3565b610499565b6040516001600160a01b039091168152602001610150565b3480156101bf57600080fd5b506101d36101ce366004611dfc565b6104c0565b005b3480156101e157600080fd5b506101ea6105db565b6040516101509190611f84565b34801561020357600080fd5b50600a545b604051908152602001610150565b34801561022257600080fd5b506101ea61078f565b34801561023757600080fd5b506101d3610246366004611d0e565b6109eb565b34801561025757600080fd5b506101d3610266366004611d0e565b610a1c565b34801561027757600080fd5b5061019b610286366004611eb3565b610a37565b34801561029757600080fd5b506102086102a6366004611cc2565b610a97565b6102086102b9366004611e5d565b610b1d565b3480156102ca57600080fd5b5061016e610b5f565b3480156102df57600080fd5b506101d36102ee366004611dc2565b610b6e565b6101d3610301366004611eb3565b610b7d565b34801561031257600080fd5b506101d3610321366004611d49565b610c75565b6101d3610334366004611eb3565b610cad565b34801561034557600080fd5b5061016e610354366004611eb3565b610e15565b6101d3610367366004611ecb565b610f26565b34801561037857600080fd5b50610144610387366004611cdc565b6001600160a01b03918216600090815260056020908152604080832093909416825291909152205460ff1690565b60006001600160e01b031982166380ac58cd60e01b14806103e657506001600160e01b03198216635b5e139f60e01b145b8061040157506301ffc9a760e01b6001600160e01b03198316145b92915050565b60606000805461041690612196565b80601f016020809104026020016040519081016040528092919081815260200182805461044290612196565b801561048f5780601f106104645761010080835404028352916020019161048f565b820191906000526020600020905b81548152906001019060200180831161047257829003601f168201915b5050505050905090565b60006104a48261101e565b506000908152600460205260409020546001600160a01b031690565b60006104cb82610a37565b9050806001600160a01b0316836001600160a01b0316141561053e5760405162461bcd60e51b815260206004820152602160248201527f4552433732313a20617070726f76616c20746f2063757272656e74206f776e656044820152603960f91b60648201526084015b60405180910390fd5b336001600160a01b038216148061055a575061055a8133610387565b6105cc5760405162461bcd60e51b815260206004820152603d60248201527f4552433732313a20617070726f76652063616c6c6572206973206e6f7420746f60448201527f6b656e206f776e6572206f7220617070726f76656420666f7220616c6c0000006064820152608401610535565b6105d68383611080565b505050565b606060006105e860075490565b905060006105f560085490565b6007546106029190612153565b90506000808267ffffffffffffffff81111561062e57634e487b7160e01b600052604160045260246000fd5b60405190808252806020026020018201604052801561068757816020015b6040805160a08101825260008082526020808301829052928201819052606082018190526080820152825260001990920191018161064c5790505b50905060005b848110156107865730600b60006106a584600161213b565b81526020810191909152604001600020600201546001600160a01b031614156107745760006106d582600161213b565b6000818152600b6020908152604091829020825160a0810184528154815260018201546001600160a01b039081169382019390935260028201549092169282019290925260038201546060820152600482015460ff16151560808201528551929350909185908790811061075957634e487b7160e01b600052603260045260246000fd5b602090810291909101015261076f60018661213b565b945050505b8061077e816121d1565b91505061068d565b50949350505050565b6060600061079c60075490565b905060008060005b838110156108345733600b60006107bc84600161213b565b81526020810191909152604001600020600201546001600160a01b0316148061080f575033600b60006107f084600161213b565b81526020810191909152604001600020600101546001600160a01b0316145b156108225761081f60018461213b565b92505b8061082c816121d1565b9150506107a4565b5060008267ffffffffffffffff81111561085e57634e487b7160e01b600052604160045260246000fd5b6040519080825280602002602001820160405280156108b757816020015b6040805160a08101825260008082526020808301829052928201819052606082018190526080820152825260001990920191018161087c5790505b50905060005b848110156107865733600b60006108d584600161213b565b81526020810191909152604001600020600201546001600160a01b03161480610928575033600b600061090984600161213b565b81526020810191909152604001600020600101546001600160a01b0316145b156109d957600061093a82600161213b565b6000818152600b6020908152604091829020825160a0810184528154815260018201546001600160a01b039081169382019390935260028201549092169282019290925260038201546060820152600482015460ff1615156080820152855192935090918590879081106109be57634e487b7160e01b600052603260045260246000fd5b60209081029190910101526109d460018661213b565b945050505b806109e3816121d1565b9150506108bd565b6109f533826110ee565b610a115760405162461bcd60e51b815260040161053590612013565b6105d683838361116c565b6105d683838360405180602001604052806000815250610c75565b6000818152600260205260408120546001600160a01b0316806104015760405162461bcd60e51b8152602060048201526018602482015277115490cdcc8c4e881a5b9d985b1a59081d1bdad95b88125160421b6044820152606401610535565b60006001600160a01b038216610b015760405162461bcd60e51b815260206004820152602960248201527f4552433732313a2061646472657373207a65726f206973206e6f7420612076616044820152683634b21037bbb732b960b91b6064820152608401610535565b506001600160a01b031660009081526003602052604090205490565b6000610b2d600780546001019055565b6000610b3860075490565b9050610b4433826112dd565b610b4e81856112f7565b610b588184611391565b9392505050565b60606001805461041690612196565b610b793383836114e7565b5050565b6009546001600160a01b03163314610bfd5760405162461bcd60e51b815260206004820152603a60248201527f6f6e6c79206f776e6572206f6620746865206d61726b6574706c61636520636160448201527f6e206368616e676520746865206c697374696e672070726963650000000000006064820152608401610535565b6009546001600160a01b03163314610c705760405162461bcd60e51b815260206004820152603060248201527f4f6e6c79206d61726b6574706c616365206f776e65722063616e20757064617460448201526f32903634b9ba34b73390383934b1b29760811b6064820152608401610535565b600a55565b610c7f33836110ee565b610c9b5760405162461bcd60e51b815260040161053590612013565b610ca7848484846115b6565b50505050565b6000818152600b6020526040902060030154348114610d36576040805162461bcd60e51b81526020600482015260248101919091527f506c65617365207375626d6974207468652061736b696e67207072696365206960448201527f6e206f7264657220746f20636f6d706c657465207468652070757263686173656064820152608401610535565b6000828152600b602052604090206002810180546001600160a01b0319908116331790915560048201805460ff1916600190811790915590910180549091169055610d85600880546001019055565b610d9030338461116c565b600954600a546040516001600160a01b039092169181156108fc0291906000818181858888f19350505050158015610dcc573d6000803e3d6000fd5b506000828152600b60205260408082206001015490516001600160a01b03909116913480156108fc02929091818181858888f193505050501580156105d6573d6000803e3d6000fd5b6060610e208261101e565b60008281526006602052604081208054610e3990612196565b80601f0160208091040260200160405190810160405280929190818152602001828054610e6590612196565b8015610eb25780601f10610e8757610100808354040283529160200191610eb2565b820191906000526020600020905b815481529060010190602001808311610e9557829003601f168201915b505050505090506000610ed060408051602081019091526000815290565b9050805160001415610ee3575092915050565b815115610f15578082604051602001610efd929190611f18565b60405160208183030381529060405292505050919050565b610f1e846115e9565b949350505050565b6000828152600b60205260409020600201546001600160a01b03163314610fa25760405162461bcd60e51b815260206004820152602a60248201527f4f6e6c79206974656d206f776e65722063616e20706572666f726d20746869736044820152691037b832b930ba34b7b760b11b6064820152608401610535565b600a543414610fc35760405162461bcd60e51b8152600401610535906120f7565b6000828152600b6020526040902060048101805460ff19169055600381018290556001810180546001600160a01b031990811633179091556002909101805490911630179055611013600861165c565b610b7933308461116c565b6000818152600260205260409020546001600160a01b031661107d5760405162461bcd60e51b8152602060048201526018602482015277115490cdcc8c4e881a5b9d985b1a59081d1bdad95b88125160421b6044820152606401610535565b50565b600081815260046020526040902080546001600160a01b0319166001600160a01b03841690811790915581906110b582610a37565b6001600160a01b03167f8c5be1e5ebec7d5bd14f71427d1e84f3dd0314c0f7b2291e5b200ac8c7c3b92560405160405180910390a45050565b6000806110fa83610a37565b9050806001600160a01b0316846001600160a01b0316148061114157506001600160a01b0380821660009081526005602090815260408083209388168352929052205460ff165b80610f1e5750836001600160a01b031661115a84610499565b6001600160a01b031614949350505050565b826001600160a01b031661117f82610a37565b6001600160a01b0316146111a55760405162461bcd60e51b8152600401610535906120b2565b6001600160a01b0382166112075760405162461bcd60e51b8152602060048201526024808201527f4552433732313a207472616e7366657220746f20746865207a65726f206164646044820152637265737360e01b6064820152608401610535565b61121483838360016116b3565b826001600160a01b031661122782610a37565b6001600160a01b03161461124d5760405162461bcd60e51b8152600401610535906120b2565b600081815260046020908152604080832080546001600160a01b03199081169091556001600160a01b0387811680865260038552838620805460001901905590871680865283862080546001019055868652600290945282852080549092168417909155905184937fddf252ad1be2c89b69c2b068fc378daa952ba7f163c4a11628f55a4df523b3ef91a4505050565b610b7982826040518060200160405280600081525061173b565b6000828152600260205260409020546001600160a01b03166113725760405162461bcd60e51b815260206004820152602e60248201527f45524337323155524953746f726167653a2055524920736574206f66206e6f6e60448201526d32bc34b9ba32b73a103a37b5b2b760911b6064820152608401610535565b600082815260066020908152604090912082516105d692840190611b97565b600081116113e15760405162461bcd60e51b815260206004820152601d60248201527f5072696365206d757374206265206174206c65617374203120756e69740000006044820152606401610535565b600a5434146114025760405162461bcd60e51b8152600401610535906120f7565b6040805160a08101825283815233602080830182815230848601818152606086018881526000608088018181528b8252600b909652979097209551865591516001860180546001600160a01b03199081166001600160a01b0393841617909155925160028701805490941691161790915593516003840155516004909201805460ff19169215159290921790915561149a918461116c565b604080513381523060208201529081018290526000606082015282907fb640004f1d14576d0c209e240cad0410e0d8c0c33a09375861fbadae2588a98d9060800160405180910390a25050565b816001600160a01b0316836001600160a01b031614156115495760405162461bcd60e51b815260206004820152601960248201527f4552433732313a20617070726f766520746f2063616c6c6572000000000000006044820152606401610535565b6001600160a01b03838116600081815260056020908152604080832094871680845294825291829020805460ff191686151590811790915591519182527f17307eab39ab6107e8899845ad3d59bd9653f200f220920489ca2b5937696c31910160405180910390a3505050565b6115c184848461116c565b6115cd8484848461176e565b610ca75760405162461bcd60e51b815260040161053590612060565b60606115f48261101e565b600061160b60408051602081019091526000815290565b9050600081511161162b5760405180602001604052806000815250610b58565b806116358461187b565b604051602001611646929190611f18565b6040516020818303038152906040529392505050565b8054806116ab5760405162461bcd60e51b815260206004820152601b60248201527f436f756e7465723a2064656372656d656e74206f766572666c6f7700000000006044820152606401610535565b600019019055565b6001811115610ca7576001600160a01b038416156116f9576001600160a01b038416600090815260036020526040812080548392906116f3908490612153565b90915550505b6001600160a01b03831615610ca7576001600160a01b0383166000908152600360205260408120805483929061173090849061213b565b909155505050505050565b6117458383611926565b611752600084848461176e565b6105d65760405162461bcd60e51b815260040161053590612060565b60006001600160a01b0384163b1561187057604051630a85bd0160e11b81526001600160a01b0385169063150b7a02906117b2903390899088908890600401611f47565b602060405180830381600087803b1580156117cc57600080fd5b505af19250505080156117fc575060408051601f3d908101601f191682019092526117f991810190611e41565b60015b611856573d80801561182a576040519150601f19603f3d011682016040523d82523d6000602084013e61182f565b606091505b50805161184e5760405162461bcd60e51b815260040161053590612060565b805181602001fd5b6001600160e01b031916630a85bd0160e11b149050610f1e565b506001949350505050565b6060600061188883611abf565b600101905060008167ffffffffffffffff8111156118b657634e487b7160e01b600052604160045260246000fd5b6040519080825280601f01601f1916602001820160405280156118e0576020820181803683370190505b5090508181016020015b600019016f181899199a1a9b1b9c1cb0b131b232b360811b600a86061a8153600a85049450846119195761191e565b6118ea565b509392505050565b6001600160a01b03821661197c5760405162461bcd60e51b815260206004820181905260248201527f4552433732313a206d696e7420746f20746865207a65726f20616464726573736044820152606401610535565b6000818152600260205260409020546001600160a01b0316156119e15760405162461bcd60e51b815260206004820152601c60248201527f4552433732313a20746f6b656e20616c7265616479206d696e746564000000006044820152606401610535565b6119ef6000838360016116b3565b6000818152600260205260409020546001600160a01b031615611a545760405162461bcd60e51b815260206004820152601c60248201527f4552433732313a20746f6b656e20616c7265616479206d696e746564000000006044820152606401610535565b6001600160a01b038216600081815260036020908152604080832080546001019055848352600290915280822080546001600160a01b0319168417905551839291907fddf252ad1be2c89b69c2b068fc378daa952ba7f163c4a11628f55a4df523b3ef908290a45050565b60008072184f03e93ff9f4daa797ed6e38ed64bf6a1f0160401b8310611afe5772184f03e93ff9f4daa797ed6e38ed64bf6a1f0160401b830492506040015b6d04ee2d6d415b85acef81000000008310611b2a576d04ee2d6d415b85acef8100000000830492506020015b662386f26fc100008310611b4857662386f26fc10000830492506010015b6305f5e1008310611b60576305f5e100830492506008015b6127108310611b7457612710830492506004015b60648310611b86576064830492506002015b600a83106104015760010192915050565b828054611ba390612196565b90600052602060002090601f016020900481019282611bc55760008555611c0b565b82601f10611bde57805160ff1916838001178555611c0b565b82800160010185558215611c0b579182015b82811115611c0b578251825591602001919060010190611bf0565b50611c17929150611c1b565b5090565b5b80821115611c175760008155600101611c1c565b600067ffffffffffffffff80841115611c4b57611c4b612202565b604051601f8501601f19908116603f01168101908282118183101715611c7357611c73612202565b81604052809350858152868686011115611c8c57600080fd5b858560208301376000602087830101525050509392505050565b80356001600160a01b0381168114611cbd57600080fd5b919050565b600060208284031215611cd3578081fd5b610b5882611ca6565b60008060408385031215611cee578081fd5b611cf783611ca6565b9150611d0560208401611ca6565b90509250929050565b600080600060608486031215611d22578081fd5b611d2b84611ca6565b9250611d3960208501611ca6565b9150604084013590509250925092565b60008060008060808587031215611d5e578081fd5b611d6785611ca6565b9350611d7560208601611ca6565b925060408501359150606085013567ffffffffffffffff811115611d97578182fd5b8501601f81018713611da7578182fd5b611db687823560208401611c30565b91505092959194509250565b60008060408385031215611dd4578182fd5b611ddd83611ca6565b915060208301358015158114611df1578182fd5b809150509250929050565b60008060408385031215611e0e578182fd5b611e1783611ca6565b946020939093013593505050565b600060208284031215611e36578081fd5b8135610b5881612218565b600060208284031215611e52578081fd5b8151610b5881612218565b60008060408385031215611e6f578182fd5b823567ffffffffffffffff811115611e85578283fd5b8301601f81018513611e95578283fd5b611ea485823560208401611c30565b95602094909401359450505050565b600060208284031215611ec4578081fd5b5035919050565b60008060408385031215611edd578182fd5b50508035926020909101359150565b60008151808452611f0481602086016020860161216a565b601f01601f19169290920160200192915050565b60008351611f2a81846020880161216a565b835190830190611f3e81836020880161216a565b01949350505050565b6001600160a01b0385811682528416602082015260408101839052608060608201819052600090611f7a90830184611eec565b9695505050505050565b602080825282518282018190526000919060409081850190868401855b82811015611ff357815180518552868101516001600160a01b03908116888701528682015116868601526060808201519086015260809081015115159085015260a09093019290850190600101611fa1565b5091979650505050505050565b602081526000610b586020830184611eec565b6020808252602d908201527f4552433732313a2063616c6c6572206973206e6f7420746f6b656e206f776e6560408201526c1c881bdc88185c1c1c9bdd9959609a1b606082015260800190565b60208082526032908201527f4552433732313a207472616e7366657220746f206e6f6e20455243373231526560408201527131b2b4bb32b91034b6b83632b6b2b73a32b960711b606082015260800190565b60208082526025908201527f4552433732313a207472616e736665722066726f6d20696e636f72726563742060408201526437bbb732b960d91b606082015260800190565b60208082526024908201527f5072696365206d75737420626520657175616c20746f206c697374696e6720706040820152637269636560e01b606082015260800190565b6000821982111561214e5761214e6121ec565b500190565b600082821015612165576121656121ec565b500390565b60005b8381101561218557818101518382015260200161216d565b83811115610ca75750506000910152565b600181811c908216806121aa57607f821691505b602082108114156121cb57634e487b7160e01b600052602260045260246000fd5b50919050565b60006000198214156121e5576121e56121ec565b5060010190565b634e487b7160e01b600052601160045260246000fd5b634e487b7160e01b600052604160045260246000fd5b6001600160e01b03198116811461107d57600080fdfea26469706673582212204169e468d958a0e79733c406633874a793033d0234201b2f8ae67fa81e8090ff64736f6c63430008040033",
  "linkReferences": {},
  "deployedLinkReferences": {}
}